{
  "_format": "hh-sol-artifact-1",
  "contractName": "MyEpicNFT",
  "sourceName": "contracts/MyEpicNFT.sol",
  "abi": [
    {
      "inputs": [],
      "stateMutability": "nonpayable",
      "type": "constructor"
    },
    {
      "anonymous": false,
      "inputs": [
        {
          "indexed": true,
          "internalType": "address",
          "name": "owner",
          "type": "address"
        },
        {
          "indexed": true,
          "internalType": "address",
          "name": "approved",
          "type": "address"
        },
        {
          "indexed": true,
          "internalType": "uint256",
          "name": "tokenId",
          "type": "uint256"
        }
      ],
      "name": "Approval",
      "type": "event"
    },
    {
      "anonymous": false,
      "inputs": [
        {
          "indexed": true,
          "internalType": "address",
          "name": "owner",
          "type": "address"
        },
        {
          "indexed": true,
          "internalType": "address",
          "name": "operator",
          "type": "address"
        },
        {
          "indexed": false,
          "internalType": "bool",
          "name": "approved",
          "type": "bool"
        }
      ],
      "name": "ApprovalForAll",
      "type": "event"
    },
    {
      "anonymous": false,
      "inputs": [
        {
          "indexed": true,
          "internalType": "address",
          "name": "from",
          "type": "address"
        },
        {
          "indexed": true,
          "internalType": "address",
          "name": "to",
          "type": "address"
        },
        {
          "indexed": true,
          "internalType": "uint256",
          "name": "tokenId",
          "type": "uint256"
        }
      ],
      "name": "Transfer",
      "type": "event"
    },
    {
      "anonymous": false,
      "inputs": [
        {
          "indexed": false,
          "internalType": "address",
          "name": "sender",
          "type": "address"
        },
        {
          "indexed": false,
          "internalType": "uint256",
          "name": "tokenId",
          "type": "uint256"
        }
      ],
      "name": "newEpicNftMinted",
      "type": "event"
    },
    {
      "inputs": [
        {
          "internalType": "address",
          "name": "to",
          "type": "address"
        },
        {
          "internalType": "uint256",
          "name": "tokenId",
          "type": "uint256"
        }
      ],
      "name": "approve",
      "outputs": [],
      "stateMutability": "nonpayable",
      "type": "function"
    },
    {
      "inputs": [
        {
          "internalType": "address",
          "name": "owner",
          "type": "address"
        }
      ],
      "name": "balanceOf",
      "outputs": [
        {
          "internalType": "uint256",
          "name": "",
          "type": "uint256"
        }
      ],
      "stateMutability": "view",
      "type": "function"
    },
    {
      "inputs": [
        {
          "internalType": "uint256",
          "name": "tokenId",
          "type": "uint256"
        }
      ],
      "name": "getApproved",
      "outputs": [
        {
          "internalType": "address",
          "name": "",
          "type": "address"
        }
      ],
      "stateMutability": "view",
      "type": "function"
    },
    {
      "inputs": [],
      "name": "getTotalNFTMintedSoFar",
      "outputs": [
        {
          "internalType": "uint256",
          "name": "",
          "type": "uint256"
        },
        {
          "internalType": "uint256",
          "name": "",
          "type": "uint256"
        }
      ],
      "stateMutability": "view",
      "type": "function"
    },
    {
      "inputs": [
        {
          "internalType": "address",
          "name": "owner",
          "type": "address"
        },
        {
          "internalType": "address",
          "name": "operator",
          "type": "address"
        }
      ],
      "name": "isApprovedForAll",
      "outputs": [
        {
          "internalType": "bool",
          "name": "",
          "type": "bool"
        }
      ],
      "stateMutability": "view",
      "type": "function"
    },
    {
      "inputs": [],
      "name": "makeAndEpicNFT",
      "outputs": [],
      "stateMutability": "nonpayable",
      "type": "function"
    },
    {
      "inputs": [],
      "name": "name",
      "outputs": [
        {
          "internalType": "string",
          "name": "",
          "type": "string"
        }
      ],
      "stateMutability": "view",
      "type": "function"
    },
    {
      "inputs": [
        {
          "internalType": "uint256",
          "name": "tokenId",
          "type": "uint256"
        }
      ],
      "name": "ownerOf",
      "outputs": [
        {
          "internalType": "address",
          "name": "",
          "type": "address"
        }
      ],
      "stateMutability": "view",
      "type": "function"
    },
    {
      "inputs": [
        {
          "internalType": "address",
          "name": "from",
          "type": "address"
        },
        {
          "internalType": "address",
          "name": "to",
          "type": "address"
        },
        {
          "internalType": "uint256",
          "name": "tokenId",
          "type": "uint256"
        }
      ],
      "name": "safeTransferFrom",
      "outputs": [],
      "stateMutability": "nonpayable",
      "type": "function"
    },
    {
      "inputs": [
        {
          "internalType": "address",
          "name": "from",
          "type": "address"
        },
        {
          "internalType": "address",
          "name": "to",
          "type": "address"
        },
        {
          "internalType": "uint256",
          "name": "tokenId",
          "type": "uint256"
        },
        {
          "internalType": "bytes",
          "name": "_data",
          "type": "bytes"
        }
      ],
      "name": "safeTransferFrom",
      "outputs": [],
      "stateMutability": "nonpayable",
      "type": "function"
    },
    {
      "inputs": [
        {
          "internalType": "address",
          "name": "operator",
          "type": "address"
        },
        {
          "internalType": "bool",
          "name": "approved",
          "type": "bool"
        }
      ],
      "name": "setApprovalForAll",
      "outputs": [],
      "stateMutability": "nonpayable",
      "type": "function"
    },
    {
      "inputs": [
        {
          "internalType": "bytes4",
          "name": "interfaceId",
          "type": "bytes4"
        }
      ],
      "name": "supportsInterface",
      "outputs": [
        {
          "internalType": "bool",
          "name": "",
          "type": "bool"
        }
      ],
      "stateMutability": "view",
      "type": "function"
    },
    {
      "inputs": [],
      "name": "symbol",
      "outputs": [
        {
          "internalType": "string",
          "name": "",
          "type": "string"
        }
      ],
      "stateMutability": "view",
      "type": "function"
    },
    {
      "inputs": [
        {
          "internalType": "uint256",
          "name": "tokenId",
          "type": "uint256"
        }
      ],
      "name": "tokenURI",
      "outputs": [
        {
          "internalType": "string",
          "name": "",
          "type": "string"
        }
      ],
      "stateMutability": "view",
      "type": "function"
    },
    {
      "inputs": [
        {
          "internalType": "address",
          "name": "from",
          "type": "address"
        },
        {
          "internalType": "address",
          "name": "to",
          "type": "address"
        },
        {
          "internalType": "uint256",
          "name": "tokenId",
          "type": "uint256"
        }
      ],
      "name": "transferFrom",
      "outputs": [],
      "stateMutability": "nonpayable",
      "type": "function"
    }
  ],
  "bytecode": "0x608060405260405180610160016040528061012f8152602001620043db61012f9139600890805190602001906200003892919062000683565b506040518060c001604052806040518060400160405280600681526020017f42616e616e61000000000000000000000000000000000000000000000000000081525081526020016040518060400160405280600581526020017f4170706c6500000000000000000000000000000000000000000000000000000081525081526020016040518060400160405280600981526020017f50696e656170706c65000000000000000000000000000000000000000000000081525081526020016040518060400160405280600681526020017f4f72616e6765000000000000000000000000000000000000000000000000000081525081526020016040518060400160405280600a81526020017f537472617762657272790000000000000000000000000000000000000000000081525081526020016040518060400160405280600981526020017f426c7565626572727900000000000000000000000000000000000000000000008152508152506009906006620001b692919062000714565b506040518060c001604052806040518060400160405280600781526020017f4573636f6e64650000000000000000000000000000000000000000000000000081525081526020016040518060400160405280600481526020017f546972610000000000000000000000000000000000000000000000000000000081525081526020016040518060400160405280600481526020017f506567610000000000000000000000000000000000000000000000000000000081525081526020016040518060400160405280600581526020017f436f72726500000000000000000000000000000000000000000000000000000081525081526020016040518060400160405280600481526020017f4d6f6a610000000000000000000000000000000000000000000000000000000081525081526020016040518060400160405280600581526020017f53616c7461000000000000000000000000000000000000000000000000000000815250815250600a9060066200033492919062000714565b506040518060c001604052806040518060400160405280600481526020017f446f67730000000000000000000000000000000000000000000000000000000081525081526020016040518060400160405280600981526020017f43616e676f6f726f73000000000000000000000000000000000000000000000081525081526020016040518060400160405280600481526020017f436174730000000000000000000000000000000000000000000000000000000081525081526020016040518060400160405280600681526020017f50656f706c65000000000000000000000000000000000000000000000000000081525081526020016040518060400160405280600781526020017f4d6f6e6b6579730000000000000000000000000000000000000000000000000081525081526020016040518060400160405280600681526020017f5768616c65730000000000000000000000000000000000000000000000000000815250815250600b906006620004b292919062000714565b506032600c55348015620004c557600080fd5b506040518060400160405280600981526020017f5371756172654e465400000000000000000000000000000000000000000000008152506040518060400160405280600681526020017f535155415245000000000000000000000000000000000000000000000000000081525081600090805190602001906200054a92919062000683565b5080600190805190602001906200056392919062000683565b505050620005b16040518060400160405280601881526020017f54686973206973206d79204e465420636f6e7472616374210000000000000000815250620005b760201b62000d3e1760201c565b62000935565b6200065781604051602401620005ce919062000849565b6040516020818303038152906040527f41304fac000000000000000000000000000000000000000000000000000000007bffffffffffffffffffffffffffffffffffffffffffffffffffffffff19166020820180517bffffffffffffffffffffffffffffffffffffffffffffffffffffffff83818316178352505050506200065a60201b60201c565b50565b60008151905060006a636f6e736f6c652e6c6f679050602083016000808483855afa5050505050565b8280546200069190620008bf565b90600052602060002090601f016020900481019282620006b5576000855562000701565b82601f10620006d057805160ff191683800117855562000701565b8280016001018555821562000701579182015b8281111562000700578251825591602001919060010190620006e3565b5b5090506200071091906200077b565b5090565b82805482825590600052602060002090810192821562000768579160200282015b82811115620007675782518290805190602001906200075692919062000683565b509160200191906001019062000735565b5b5090506200077791906200079a565b5090565b5b80821115620007965760008160009055506001016200077c565b5090565b5b80821115620007be5760008181620007b49190620007c2565b506001016200079b565b5090565b508054620007d090620008bf565b6000825580601f10620007e4575062000805565b601f0160209004906000526020600020908101906200080491906200077b565b5b50565b600062000815826200086d565b62000821818562000878565b93506200083381856020860162000889565b6200083e8162000924565b840191505092915050565b6000602082019050818103600083015262000865818462000808565b905092915050565b600081519050919050565b600082825260208201905092915050565b60005b83811015620008a95780820151818401526020810190506200088c565b83811115620008b9576000848401525b50505050565b60006002820490506001821680620008d857607f821691505b60208210811415620008ef57620008ee620008f5565b5b50919050565b7f4e487b7100000000000000000000000000000000000000000000000000000000600052602260045260246000fd5b6000601f19601f8301169050919050565b613a9680620009456000396000f3fe608060405234801561001057600080fd5b50600436106100f55760003560e01c80636352211e11610097578063b88d4fde11610066578063b88d4fde14610285578063c87b56dd146102a1578063e985e9c5146102d1578063ee1e205714610301576100f5565b80636352211e146101eb57806370a082311461021b57806395d89b411461024b578063a22cb46514610269576100f5565b8063095ea7b3116100d3578063095ea7b31461017857806323b872dd1461019457806342842e0e146101b057806359f4a51e146101cc576100f5565b806301ffc9a7146100fa57806306fdde031461012a578063081812fc14610148575b600080fd5b610114600480360381019061010f91906124d0565b61030b565b6040516101219190612c17565b60405180910390f35b6101326103ed565b60405161013f9190612c32565b60405180910390f35b610162600480360381019061015d9190612522565b61047f565b60405161016f9190612b87565b60405180910390f35b610192600480360381019061018d9190612494565b610504565b005b6101ae60048036038101906101a9919061238e565b61061c565b005b6101ca60048036038101906101c5919061238e565b61067c565b005b6101d461069c565b6040516101e2929190612ee2565b60405180910390f35b61020560048036038101906102009190612522565b6106b4565b6040516102129190612b87565b60405180910390f35b61023560048036038101906102309190612329565b610766565b6040516102429190612ec7565b60405180910390f35b61025361081e565b6040516102609190612c32565b60405180910390f35b610283600480360381019061027e9190612458565b6108b0565b005b61029f600480360381019061029a91906123dd565b6108c6565b005b6102bb60048036038101906102b69190612522565b610928565b6040516102c89190612c32565b60405180910390f35b6102eb60048036038101906102e69190612352565b610a7a565b6040516102f89190612c17565b60405180910390f35b610309610b0e565b005b60007f80ac58cd000000000000000000000000000000000000000000000000000000007bffffffffffffffffffffffffffffffffffffffffffffffffffffffff1916827bffffffffffffffffffffffffffffffffffffffffffffffffffffffff191614806103d657507f5b5e139f000000000000000000000000000000000000000000000000000000007bffffffffffffffffffffffffffffffffffffffffffffffffffffffff1916827bffffffffffffffffffffffffffffffffffffffffffffffffffffffff1916145b806103e657506103e582610dd7565b5b9050919050565b6060600080546103fc90613184565b80601f016020809104026020016040519081016040528092919081815260200182805461042890613184565b80156104755780601f1061044a57610100808354040283529160200191610475565b820191906000526020600020905b81548152906001019060200180831161045857829003601f168201915b5050505050905090565b600061048a82610e41565b6104c9576040517f08c379a00000000000000000000000000000000000000000000000000000000081526004016104c090612e47565b60405180910390fd5b6004600083815260200190815260200160002060009054906101000a900473ffffffffffffffffffffffffffffffffffffffff169050919050565b600061050f826106b4565b90508073ffffffffffffffffffffffffffffffffffffffff168373ffffffffffffffffffffffffffffffffffffffff161415610580576040517f08c379a000000000000000000000000000000000000000000000000000000000815260040161057790612e87565b60405180910390fd5b8073ffffffffffffffffffffffffffffffffffffffff1661059f610ead565b73ffffffffffffffffffffffffffffffffffffffff1614806105ce57506105cd816105c8610ead565b610a7a565b5b61060d576040517f08c379a000000000000000000000000000000000000000000000000000000000815260040161060490612d67565b60405180910390fd5b6106178383610eb5565b505050565b61062d610627610ead565b82610f6e565b61066c576040517f08c379a000000000000000000000000000000000000000000000000000000000815260040161066390612ea7565b60405180910390fd5b61067783838361104c565b505050565b610697838383604051806020016040528060008152506108c6565b505050565b6000806106a960076112b3565b600c54915091509091565b6000806002600084815260200190815260200160002060009054906101000a900473ffffffffffffffffffffffffffffffffffffffff169050600073ffffffffffffffffffffffffffffffffffffffff168173ffffffffffffffffffffffffffffffffffffffff16141561075d576040517f08c379a000000000000000000000000000000000000000000000000000000000815260040161075490612da7565b60405180910390fd5b80915050919050565b60008073ffffffffffffffffffffffffffffffffffffffff168273ffffffffffffffffffffffffffffffffffffffff1614156107d7576040517f08c379a00000000000000000000000000000000000000000000000000000000081526004016107ce90612d87565b60405180910390fd5b600360008373ffffffffffffffffffffffffffffffffffffffff1673ffffffffffffffffffffffffffffffffffffffff168152602001908152602001600020549050919050565b60606001805461082d90613184565b80601f016020809104026020016040519081016040528092919081815260200182805461085990613184565b80156108a65780601f1061087b576101008083540402835291602001916108a6565b820191906000526020600020905b81548152906001019060200180831161088957829003601f168201915b5050505050905090565b6108c26108bb610ead565b83836112c1565b5050565b6108d76108d1610ead565b83610f6e565b610916576040517f08c379a000000000000000000000000000000000000000000000000000000000815260040161090d90612ea7565b60405180910390fd5b6109228484848461142e565b50505050565b606061093382610e41565b610972576040517f08c379a000000000000000000000000000000000000000000000000000000000815260040161096990612e27565b60405180910390fd5b600060066000848152602001908152602001600020805461099290613184565b80601f01602080910402602001604051908101604052809291908181526020018280546109be90613184565b8015610a0b5780601f106109e057610100808354040283529160200191610a0b565b820191906000526020600020905b8154815290600101906020018083116109ee57829003601f168201915b505050505090506000610a1c61148a565b9050600081511415610a32578192505050610a75565b600082511115610a67578082604051602001610a4f929190612a1c565b60405160208183030381529060405292505050610a75565b610a70846114a1565b925050505b919050565b6000600560008473ffffffffffffffffffffffffffffffffffffffff1673ffffffffffffffffffffffffffffffffffffffff16815260200190815260200160002060008373ffffffffffffffffffffffffffffffffffffffff1673ffffffffffffffffffffffffffffffffffffffff16815260200190815260200160002060009054906101000a900460ff16905092915050565b6000610b1a60076112b3565b9050600c548110610b60576040517f08c379a0000000000000000000000000000000000000000000000000000000008152600401610b5790612de7565b60405180910390fd5b610b6a3382611548565b6000610b7582611566565b90506000610b8283611687565b90506000610b8f846117a8565b905060006008848484604051602001610bab9493929190612a71565b60405160208183030381529060405290506000848484604051602001610bd393929190612a40565b60405160208183030381529060405290506000610c1882610bf3856118c9565b604051602001610c04929190612afe565b6040516020818303038152906040526118c9565b9050600081604051602001610c2d9190612b43565b6040516020818303038152906040529050610c7c6040518060400160405280601581526020017f0a2d2d2d2d2d2d2d2d2d2d2d2d2d2d2d2d2d2d2d2d0000000000000000000000815250610d3e565b610c8581610d3e565b610cc36040518060400160405280601581526020017f2d2d2d2d2d2d2d2d2d2d2d2d2d2d2d2d2d2d2d2d0a0000000000000000000000815250610d3e565b610ccd8882611a87565b610cd76007611afb565b610cfb6040518060600160405280603581526020016139ec60359139898533611b11565b7f6f7cc39c2501a47a177fd5be282deb7b4074f6244d33b05e8bba5ad9824700ee3389604051610d2c929190612bee565b60405180910390a15050505050505050565b610dd481604051602401610d529190612c32565b6040516020818303038152906040527f41304fac000000000000000000000000000000000000000000000000000000007bffffffffffffffffffffffffffffffffffffffffffffffffffffffff19166020820180517bffffffffffffffffffffffffffffffffffffffffffffffffffffffff8381831617835250505050611bb3565b50565b60007f01ffc9a7000000000000000000000000000000000000000000000000000000007bffffffffffffffffffffffffffffffffffffffffffffffffffffffff1916827bffffffffffffffffffffffffffffffffffffffffffffffffffffffff1916149050919050565b60008073ffffffffffffffffffffffffffffffffffffffff166002600084815260200190815260200160002060009054906101000a900473ffffffffffffffffffffffffffffffffffffffff1673ffffffffffffffffffffffffffffffffffffffff1614159050919050565b600033905090565b816004600083815260200190815260200160002060006101000a81548173ffffffffffffffffffffffffffffffffffffffff021916908373ffffffffffffffffffffffffffffffffffffffff160217905550808273ffffffffffffffffffffffffffffffffffffffff16610f28836106b4565b73ffffffffffffffffffffffffffffffffffffffff167f8c5be1e5ebec7d5bd14f71427d1e84f3dd0314c0f7b2291e5b200ac8c7c3b92560405160405180910390a45050565b6000610f7982610e41565b610fb8576040517f08c379a0000000000000000000000000000000000000000000000000000000008152600401610faf90612d47565b60405180910390fd5b6000610fc3836106b4565b90508073ffffffffffffffffffffffffffffffffffffffff168473ffffffffffffffffffffffffffffffffffffffff16148061100557506110048185610a7a565b5b8061104357508373ffffffffffffffffffffffffffffffffffffffff1661102b8461047f565b73ffffffffffffffffffffffffffffffffffffffff16145b91505092915050565b8273ffffffffffffffffffffffffffffffffffffffff1661106c826106b4565b73ffffffffffffffffffffffffffffffffffffffff16146110c2576040517f08c379a00000000000000000000000000000000000000000000000000000000081526004016110b990612cc7565b60405180910390fd5b600073ffffffffffffffffffffffffffffffffffffffff168273ffffffffffffffffffffffffffffffffffffffff161415611132576040517f08c379a000000000000000000000000000000000000000000000000000000000815260040161112990612d07565b60405180910390fd5b61113d838383611bdc565b611148600082610eb5565b6001600360008573ffffffffffffffffffffffffffffffffffffffff1673ffffffffffffffffffffffffffffffffffffffff1681526020019081526020016000206000828254611198919061309a565b925050819055506001600360008473ffffffffffffffffffffffffffffffffffffffff1673ffffffffffffffffffffffffffffffffffffffff16815260200190815260200160002060008282546111ef9190612fb9565b92505081905550816002600083815260200190815260200160002060006101000a81548173ffffffffffffffffffffffffffffffffffffffff021916908373ffffffffffffffffffffffffffffffffffffffff160217905550808273ffffffffffffffffffffffffffffffffffffffff168473ffffffffffffffffffffffffffffffffffffffff167fddf252ad1be2c89b69c2b068fc378daa952ba7f163c4a11628f55a4df523b3ef60405160405180910390a46112ae838383611be1565b505050565b600081600001549050919050565b8173ffffffffffffffffffffffffffffffffffffffff168373ffffffffffffffffffffffffffffffffffffffff161415611330576040517f08c379a000000000000000000000000000000000000000000000000000000000815260040161132790612d27565b60405180910390fd5b80600560008573ffffffffffffffffffffffffffffffffffffffff1673ffffffffffffffffffffffffffffffffffffffff16815260200190815260200160002060008473ffffffffffffffffffffffffffffffffffffffff1673ffffffffffffffffffffffffffffffffffffffff16815260200190815260200160002060006101000a81548160ff0219169083151502179055508173ffffffffffffffffffffffffffffffffffffffff168373ffffffffffffffffffffffffffffffffffffffff167f17307eab39ab6107e8899845ad3d59bd9653f200f220920489ca2b5937696c31836040516114219190612c17565b60405180910390a3505050565b61143984848461104c565b61144584848484611be6565b611484576040517f08c379a000000000000000000000000000000000000000000000000000000000815260040161147b90612ca7565b60405180910390fd5b50505050565b606060405180602001604052806000815250905090565b60606114ac82610e41565b6114eb576040517f08c379a00000000000000000000000000000000000000000000000000000000081526004016114e290612e67565b60405180910390fd5b60006114f561148a565b905060008151116115155760405180602001604052806000815250611540565b8061151f84611d7d565b604051602001611530929190612a1c565b6040516020818303038152906040525b915050919050565b611562828260405180602001604052806000815250611f2a565b5050565b6060600061159a61157684611d7d565b6040516020016115869190612aba565b604051602081830303815290604052611f85565b90506000600980549050826115af9190613230565b9050600981815481106115eb577f4e487b7100000000000000000000000000000000000000000000000000000000600052603260045260246000fd5b90600052602060002001805461160090613184565b80601f016020809104026020016040519081016040528092919081815260200182805461162c90613184565b80156116795780601f1061164e57610100808354040283529160200191611679565b820191906000526020600020905b81548152906001019060200180831161165c57829003601f168201915b505050505092505050919050565b606060006116bb61169784611d7d565b6040516020016116a79190612b65565b604051602081830303815290604052611f85565b90506000600a80549050826116d09190613230565b9050600a818154811061170c577f4e487b7100000000000000000000000000000000000000000000000000000000600052603260045260246000fd5b90600052602060002001805461172190613184565b80601f016020809104026020016040519081016040528092919081815260200182805461174d90613184565b801561179a5780601f1061176f5761010080835404028352916020019161179a565b820191906000526020600020905b81548152906001019060200180831161177d57829003601f168201915b505050505092505050919050565b606060006117dc6117b884611d7d565b6040516020016117c89190612adc565b604051602081830303815290604052611f85565b90506000600b80549050826117f19190613230565b9050600b818154811061182d577f4e487b7100000000000000000000000000000000000000000000000000000000600052603260045260246000fd5b90600052602060002001805461184290613184565b80601f016020809104026020016040519081016040528092919081815260200182805461186e90613184565b80156118bb5780601f10611890576101008083540402835291602001916118bb565b820191906000526020600020905b81548152906001019060200180831161189e57829003601f168201915b505050505092505050919050565b606060008251905060008114156118f25760405180602001604052806000815250915050611a82565b600060036002836119039190612fb9565b61190d919061300f565b60046119199190613040565b9050600060208261192a9190612fb9565b67ffffffffffffffff811115611969577f4e487b7100000000000000000000000000000000000000000000000000000000600052604160045260246000fd5b6040519080825280601f01601f19166020018201604052801561199b5781602001600182028036833780820191505090505b5090506000604051806060016040528060408152602001613a21604091399050600181016020830160005b86811015611a3f5760038101905062ffffff818a015116603f8160121c168401518060081b905060ff603f83600c1c1686015116810190508060081b905060ff603f8360061c1686015116810190508060081b905060ff603f831686015116810190508060e01b905080845260048401935050506119c6565b506003860660018114611a595760028114611a6957611a74565b613d3d60f01b6002830352611a74565b603d60f81b60018303525b508484525050819450505050505b919050565b611a9082610e41565b611acf576040517f08c379a0000000000000000000000000000000000000000000000000000000008152600401611ac690612dc7565b60405180910390fd5b80600660008481526020019081526020016000209080519060200190611af69291906121b5565b505050565b6001816000016000828254019250508190555050565b611bad84848484604051602401611b2b9493929190612c54565b6040516020818303038152906040527fbb7235e9000000000000000000000000000000000000000000000000000000007bffffffffffffffffffffffffffffffffffffffffffffffffffffffff19166020820180517bffffffffffffffffffffffffffffffffffffffffffffffffffffffff8381831617835250505050611bb3565b50505050565b60008151905060006a636f6e736f6c652e6c6f679050602083016000808483855afa5050505050565b505050565b505050565b6000611c078473ffffffffffffffffffffffffffffffffffffffff16611fb8565b15611d70578373ffffffffffffffffffffffffffffffffffffffff1663150b7a02611c30610ead565b8786866040518563ffffffff1660e01b8152600401611c529493929190612ba2565b602060405180830381600087803b158015611c6c57600080fd5b505af1925050508015611c9d57506040513d601f19601f82011682018060405250810190611c9a91906124f9565b60015b611d20573d8060008114611ccd576040519150601f19603f3d011682016040523d82523d6000602084013e611cd2565b606091505b50600081511415611d18576040517f08c379a0000000000000000000000000000000000000000000000000000000008152600401611d0f90612ca7565b60405180910390fd5b805181602001fd5b63150b7a0260e01b7bffffffffffffffffffffffffffffffffffffffffffffffffffffffff1916817bffffffffffffffffffffffffffffffffffffffffffffffffffffffff191614915050611d75565b600190505b949350505050565b60606000821415611dc5576040518060400160405280600181526020017f30000000000000000000000000000000000000000000000000000000000000008152509050611f25565b600082905060005b60008214611df7578080611de0906131e7565b915050600a82611df0919061300f565b9150611dcd565b60008167ffffffffffffffff811115611e39577f4e487b7100000000000000000000000000000000000000000000000000000000600052604160045260246000fd5b6040519080825280601f01601f191660200182016040528015611e6b5781602001600182028036833780820191505090505b5090505b60008514611f1e57600182611e84919061309a565b9150600a85611e939190613230565b6030611e9f9190612fb9565b60f81b818381518110611edb577f4e487b7100000000000000000000000000000000000000000000000000000000600052603260045260246000fd5b60200101907effffffffffffffffffffffffffffffffffffffffffffffffffffffffffffff1916908160001a905350600a85611f17919061300f565b9450611e6f565b8093505050505b919050565b611f348383611fdb565b611f416000848484611be6565b611f80576040517f08c379a0000000000000000000000000000000000000000000000000000000008152600401611f7790612ca7565b60405180910390fd5b505050565b600081604051602001611f989190612a05565b6040516020818303038152906040528051906020012060001c9050919050565b6000808273ffffffffffffffffffffffffffffffffffffffff163b119050919050565b600073ffffffffffffffffffffffffffffffffffffffff168273ffffffffffffffffffffffffffffffffffffffff16141561204b576040517f08c379a000000000000000000000000000000000000000000000000000000000815260040161204290612e07565b60405180910390fd5b61205481610e41565b15612094576040517f08c379a000000000000000000000000000000000000000000000000000000000815260040161208b90612ce7565b60405180910390fd5b6120a060008383611bdc565b6001600360008473ffffffffffffffffffffffffffffffffffffffff1673ffffffffffffffffffffffffffffffffffffffff16815260200190815260200160002060008282546120f09190612fb9565b92505081905550816002600083815260200190815260200160002060006101000a81548173ffffffffffffffffffffffffffffffffffffffff021916908373ffffffffffffffffffffffffffffffffffffffff160217905550808273ffffffffffffffffffffffffffffffffffffffff16600073ffffffffffffffffffffffffffffffffffffffff167fddf252ad1be2c89b69c2b068fc378daa952ba7f163c4a11628f55a4df523b3ef60405160405180910390a46121b160008383611be1565b5050565b8280546121c190613184565b90600052602060002090601f0160209004810192826121e3576000855561222a565b82601f106121fc57805160ff191683800117855561222a565b8280016001018555821561222a579182015b8281111561222957825182559160200191906001019061220e565b5b509050612237919061223b565b5090565b5b8082111561225457600081600090555060010161223c565b5090565b600061226b61226684612f30565b612f0b565b90508281526020810184848401111561228357600080fd5b61228e848285613142565b509392505050565b6000813590506122a58161398f565b92915050565b6000813590506122ba816139a6565b92915050565b6000813590506122cf816139bd565b92915050565b6000815190506122e4816139bd565b92915050565b600082601f8301126122fb57600080fd5b813561230b848260208601612258565b91505092915050565b600081359050612323816139d4565b92915050565b60006020828403121561233b57600080fd5b600061234984828501612296565b91505092915050565b6000806040838503121561236557600080fd5b600061237385828601612296565b925050602061238485828601612296565b9150509250929050565b6000806000606084860312156123a357600080fd5b60006123b186828701612296565b93505060206123c286828701612296565b92505060406123d386828701612314565b9150509250925092565b600080600080608085870312156123f357600080fd5b600061240187828801612296565b945050602061241287828801612296565b935050604061242387828801612314565b925050606085013567ffffffffffffffff81111561244057600080fd5b61244c878288016122ea565b91505092959194509250565b6000806040838503121561246b57600080fd5b600061247985828601612296565b925050602061248a858286016122ab565b9150509250929050565b600080604083850312156124a757600080fd5b60006124b585828601612296565b92505060206124c685828601612314565b9150509250929050565b6000602082840312156124e257600080fd5b60006124f0848285016122c0565b91505092915050565b60006020828403121561250b57600080fd5b6000612519848285016122d5565b91505092915050565b60006020828403121561253457600080fd5b600061254284828501612314565b91505092915050565b612554816130ce565b82525050565b612563816130e0565b82525050565b600061257482612f76565b61257e8185612f8c565b935061258e818560208601613151565b6125978161331d565b840191505092915050565b60006125ad82612f81565b6125b78185612f9d565b93506125c7818560208601613151565b6125d08161331d565b840191505092915050565b60006125e682612f81565b6125f08185612fae565b9350612600818560208601613151565b80840191505092915050565b6000815461261981613184565b6126238186612fae565b9450600182166000811461263e576001811461264f57612682565b60ff19831686528186019350612682565b61265885612f61565b60005b8381101561267a5781548189015260018201915060208101905061265b565b838801955050505b50505092915050565b6000612698603283612f9d565b91506126a38261332e565b604082019050919050565b60006126bb602583612f9d565b91506126c68261337d565b604082019050919050565b60006126de600a83612fae565b91506126e9826133cc565b600a82019050919050565b6000612701601c83612f9d565b915061270c826133f5565b602082019050919050565b6000612724602483612f9d565b915061272f8261341e565b604082019050919050565b6000612747601983612f9d565b91506127528261346d565b602082019050919050565b600061276a606383612fae565b915061277582613496565b606382019050919050565b600061278d602c83612f9d565b915061279882613531565b604082019050919050565b60006127b0600d83612fae565b91506127bb82613580565b600d82019050919050565b60006127d3603883612f9d565b91506127de826135a9565b604082019050919050565b60006127f6600a83612fae565b9150612801826135f8565b600a82019050919050565b6000612819602a83612f9d565b915061282482613621565b604082019050919050565b600061283c602983612f9d565b915061284782613670565b604082019050919050565b600061285f602e83612f9d565b915061286a826136bf565b604082019050919050565b6000612882601783612f9d565b915061288d8261370e565b602082019050919050565b60006128a5600283612fae565b91506128b082613737565b600282019050919050565b60006128c8602083612f9d565b91506128d382613760565b602082019050919050565b60006128eb603183612f9d565b91506128f682613789565b604082019050919050565b600061290e602c83612f9d565b9150612919826137d8565b604082019050919050565b6000612931602f83612f9d565b915061293c82613827565b604082019050919050565b6000612954600a83612fae565b915061295f82613876565b600a82019050919050565b6000612977602183612f9d565b91506129828261389f565b604082019050919050565b600061299a601d83612fae565b91506129a5826138ee565b601d82019050919050565b60006129bd603183612f9d565b91506129c882613917565b604082019050919050565b60006129e0600b83612fae565b91506129eb82613966565b600b82019050919050565b6129ff81613138565b82525050565b6000612a1182846125db565b915081905092915050565b6000612a2882856125db565b9150612a3482846125db565b91508190509392505050565b6000612a4c82866125db565b9150612a5882856125db565b9150612a6482846125db565b9150819050949350505050565b6000612a7d828761260c565b9150612a8982866125db565b9150612a9582856125db565b9150612aa182846125db565b9150612aac826127a3565b915081905095945050505050565b6000612ac5826126d1565b9150612ad182846125db565b915081905092915050565b6000612ae7826127e9565b9150612af382846125db565b915081905092915050565b6000612b0982612947565b9150612b1582856125db565b9150612b208261275d565b9150612b2c82846125db565b9150612b3782612898565b91508190509392505050565b6000612b4e8261298d565b9150612b5a82846125db565b915081905092915050565b6000612b70826129d3565b9150612b7c82846125db565b915081905092915050565b6000602082019050612b9c600083018461254b565b92915050565b6000608082019050612bb7600083018761254b565b612bc4602083018661254b565b612bd160408301856129f6565b8181036060830152612be38184612569565b905095945050505050565b6000604082019050612c03600083018561254b565b612c1060208301846129f6565b9392505050565b6000602082019050612c2c600083018461255a565b92915050565b60006020820190508181036000830152612c4c81846125a2565b905092915050565b60006080820190508181036000830152612c6e81876125a2565b9050612c7d60208301866129f6565b8181036040830152612c8f81856125a2565b9050612c9e606083018461254b565b95945050505050565b60006020820190508181036000830152612cc08161268b565b9050919050565b60006020820190508181036000830152612ce0816126ae565b9050919050565b60006020820190508181036000830152612d00816126f4565b9050919050565b60006020820190508181036000830152612d2081612717565b9050919050565b60006020820190508181036000830152612d408161273a565b9050919050565b60006020820190508181036000830152612d6081612780565b9050919050565b60006020820190508181036000830152612d80816127c6565b9050919050565b60006020820190508181036000830152612da08161280c565b9050919050565b60006020820190508181036000830152612dc08161282f565b9050919050565b60006020820190508181036000830152612de081612852565b9050919050565b60006020820190508181036000830152612e0081612875565b9050919050565b60006020820190508181036000830152612e20816128bb565b9050919050565b60006020820190508181036000830152612e40816128de565b9050919050565b60006020820190508181036000830152612e6081612901565b9050919050565b60006020820190508181036000830152612e8081612924565b9050919050565b60006020820190508181036000830152612ea08161296a565b9050919050565b60006020820190508181036000830152612ec0816129b0565b9050919050565b6000602082019050612edc60008301846129f6565b92915050565b6000604082019050612ef760008301856129f6565b612f0460208301846129f6565b9392505050565b6000612f15612f26565b9050612f2182826131b6565b919050565b6000604051905090565b600067ffffffffffffffff821115612f4b57612f4a6132ee565b5b612f548261331d565b9050602081019050919050565b60008190508160005260206000209050919050565b600081519050919050565b600081519050919050565b600082825260208201905092915050565b600082825260208201905092915050565b600081905092915050565b6000612fc482613138565b9150612fcf83613138565b9250827fffffffffffffffffffffffffffffffffffffffffffffffffffffffffffffffff0382111561300457613003613261565b5b828201905092915050565b600061301a82613138565b915061302583613138565b92508261303557613034613290565b5b828204905092915050565b600061304b82613138565b915061305683613138565b9250817fffffffffffffffffffffffffffffffffffffffffffffffffffffffffffffffff048311821515161561308f5761308e613261565b5b828202905092915050565b60006130a582613138565b91506130b083613138565b9250828210156130c3576130c2613261565b5b828203905092915050565b60006130d982613118565b9050919050565b60008115159050919050565b60007fffffffff0000000000000000000000000000000000000000000000000000000082169050919050565b600073ffffffffffffffffffffffffffffffffffffffff82169050919050565b6000819050919050565b82818337600083830152505050565b60005b8381101561316f578082015181840152602081019050613154565b8381111561317e576000848401525b50505050565b6000600282049050600182168061319c57607f821691505b602082108114156131b0576131af6132bf565b5b50919050565b6131bf8261331d565b810181811067ffffffffffffffff821117156131de576131dd6132ee565b5b80604052505050565b60006131f282613138565b91507fffffffffffffffffffffffffffffffffffffffffffffffffffffffffffffffff82141561322557613224613261565b5b600182019050919050565b600061323b82613138565b915061324683613138565b92508261325657613255613290565b5b828206905092915050565b7f4e487b7100000000000000000000000000000000000000000000000000000000600052601160045260246000fd5b7f4e487b7100000000000000000000000000000000000000000000000000000000600052601260045260246000fd5b7f4e487b7100000000000000000000000000000000000000000000000000000000600052602260045260246000fd5b7f4e487b7100000000000000000000000000000000000000000000000000000000600052604160045260246000fd5b6000601f19601f8301169050919050565b7f4552433732313a207472616e7366657220746f206e6f6e20455243373231526560008201527f63656976657220696d706c656d656e7465720000000000000000000000000000602082015250565b7f4552433732313a207472616e736665722066726f6d20696e636f72726563742060008201527f6f776e6572000000000000000000000000000000000000000000000000000000602082015250565b7f46697273745f776f726400000000000000000000000000000000000000000000600082015250565b7f4552433732313a20746f6b656e20616c7265616479206d696e74656400000000600082015250565b7f4552433732313a207472616e7366657220746f20746865207a65726f2061646460008201527f7265737300000000000000000000000000000000000000000000000000000000602082015250565b7f4552433732313a20617070726f766520746f2063616c6c657200000000000000600082015250565b7f222c20226465736372697074696f6e223a20224120686967686c79206163636c60008201527f61696d656420636f6c6c656374696f6e206f6620737175617265732e222c202260208201527f696d616765223a2022646174613a696d6167652f7376672b786d6c3b6261736560408201527f36342c0000000000000000000000000000000000000000000000000000000000606082015250565b7f4552433732313a206f70657261746f7220717565727920666f72206e6f6e657860008201527f697374656e7420746f6b656e0000000000000000000000000000000000000000602082015250565b7f3c2f746578743e3c2f7376673e00000000000000000000000000000000000000600082015250565b7f4552433732313a20617070726f76652063616c6c6572206973206e6f74206f7760008201527f6e6572206e6f7220617070726f76656420666f7220616c6c0000000000000000602082015250565b7f54686972645f776f726400000000000000000000000000000000000000000000600082015250565b7f4552433732313a2062616c616e636520717565727920666f7220746865207a6560008201527f726f206164647265737300000000000000000000000000000000000000000000602082015250565b7f4552433732313a206f776e657220717565727920666f72206e6f6e657869737460008201527f656e7420746f6b656e0000000000000000000000000000000000000000000000602082015250565b7f45524337323155524953746f726167653a2055524920736574206f66206e6f6e60008201527f6578697374656e7420746f6b656e000000000000000000000000000000000000602082015250565b7f4d6178204e4654204d696e74696e672072656163686564000000000000000000600082015250565b7f227d000000000000000000000000000000000000000000000000000000000000600082015250565b7f4552433732313a206d696e7420746f20746865207a65726f2061646472657373600082015250565b7f45524337323155524953746f726167653a2055524920717565727920666f722060008201527f6e6f6e6578697374656e7420746f6b656e000000000000000000000000000000602082015250565b7f4552433732313a20617070726f76656420717565727920666f72206e6f6e657860008201527f697374656e7420746f6b656e0000000000000000000000000000000000000000602082015250565b7f4552433732314d657461646174613a2055524920717565727920666f72206e6f60008201527f6e6578697374656e7420746f6b656e0000000000000000000000000000000000602082015250565b7f7b226e616d65223a202200000000000000000000000000000000000000000000600082015250565b7f4552433732313a20617070726f76616c20746f2063757272656e74206f776e6560008201527f7200000000000000000000000000000000000000000000000000000000000000602082015250565b7f646174613a6170706c69636174696f6e2f6a736f6e3b6261736536342c000000600082015250565b7f4552433732313a207472616e736665722063616c6c6572206973206e6f74206f60008201527f776e6572206e6f7220617070726f766564000000000000000000000000000000602082015250565b7f5365636f6e645f776f7264000000000000000000000000000000000000000000600082015250565b613998816130ce565b81146139a357600080fd5b50565b6139af816130e0565b81146139ba57600080fd5b50565b6139c6816130ec565b81146139d157600080fd5b50565b6139dd81613138565b81146139e857600080fd5b5056fe416e642045706963204e465420232573203a20257320686173206265656e20637265617465642066726f6d2077616c6c65742025734142434445464748494a4b4c4d4e4f505152535455565758595a6162636465666768696a6b6c6d6e6f707172737475767778797a303132333435363738392b2fa26469706673582212205e3cbaf7796b722101c3142c94ca45db36c467aef72d7baf81cadac885f0551d64736f6c634300080100333c73766720786d6c6e733d27687474703a2f2f7777772e77332e6f72672f323030302f73766727207072657365727665417370656374526174696f3d27784d696e594d696e206d656574272076696577426f783d273020302033353020333530273e3c7374796c653e2e62617365207b2066696c6c3a2077686974653b20666f6e742d66616d696c793a2073657269663b20666f6e742d73697a653a20323470783b207d3c2f7374796c653e3c726563742077696474683d273130302527206865696768743d2731303025272066696c6c3d27626c61636b27202f3e3c7465787420783d273530252720793d273530252720636c6173733d27626173652720646f6d696e616e742d626173656c696e653d276d6964646c652720746578742d616e63686f723d276d6964646c65273e",
  "linkReferences": {},
  "deployedLinkReferences": {}
}